{
  "_format": "hh-sol-artifact-1",
  "contractName": "Raffle",
  "sourceName": "contracts/Raffle.sol",
  "abi": [
    {
      "inputs": [
        {
          "internalType": "address",
          "name": "vrfCoordinatorV2",
          "type": "address"
        },
        {
          "internalType": "uint256",
          "name": "entranceFee",
          "type": "uint256"
        },
        {
          "internalType": "bytes32",
          "name": "gasLane",
          "type": "bytes32"
        },
        {
          "internalType": "uint64",
          "name": "subscriptionId",
          "type": "uint64"
        },
        {
          "internalType": "uint32",
          "name": "callbackGasLimit",
          "type": "uint32"
        }
      ],
      "stateMutability": "nonpayable",
      "type": "constructor"
    },
    {
      "inputs": [
        {
          "internalType": "address",
          "name": "have",
          "type": "address"
        },
        {
          "internalType": "address",
          "name": "want",
          "type": "address"
        }
      ],
      "name": "OnlyCoordinatorCanFulfill",
      "type": "error"
    },
    {
      "inputs": [],
      "name": "Raffle_TransferFailed",
      "type": "error"
    },
    {
      "inputs": [],
      "name": "Raffle__NotEnoughETHEntered",
      "type": "error"
    },
    {
      "anonymous": false,
      "inputs": [
        {
          "indexed": true,
          "internalType": "address",
          "name": "player",
          "type": "address"
        }
      ],
      "name": "RaffleEnter",
      "type": "event"
    },
    {
      "anonymous": false,
      "inputs": [
        {
          "indexed": true,
          "internalType": "uint256",
          "name": "requestId",
          "type": "uint256"
        }
      ],
      "name": "RequestedRaffleWinner",
      "type": "event"
    },
    {
      "anonymous": false,
      "inputs": [
        {
          "indexed": true,
          "internalType": "address",
          "name": "winner",
          "type": "address"
        }
      ],
      "name": "WinnerPicked",
      "type": "event"
    },
    {
      "inputs": [],
      "name": "enterRaffle",
      "outputs": [],
      "stateMutability": "payable",
      "type": "function"
    },
    {
      "inputs": [],
      "name": "getEntranceFee",
      "outputs": [
        {
          "internalType": "uint256",
          "name": "",
          "type": "uint256"
        }
      ],
      "stateMutability": "view",
      "type": "function"
    },
    {
      "inputs": [
        {
          "internalType": "uint256",
          "name": "index",
          "type": "uint256"
        }
      ],
      "name": "getPlayers",
      "outputs": [
        {
          "internalType": "address",
          "name": "",
          "type": "address"
        }
      ],
      "stateMutability": "view",
      "type": "function"
    },
    {
      "inputs": [],
      "name": "getRecentWinner",
      "outputs": [
        {
          "internalType": "address",
          "name": "",
          "type": "address"
        }
      ],
      "stateMutability": "view",
      "type": "function"
    },
    {
      "inputs": [
        {
          "internalType": "uint256",
          "name": "requestId",
          "type": "uint256"
        },
        {
          "internalType": "uint256[]",
          "name": "randomWords",
          "type": "uint256[]"
        }
      ],
      "name": "rawFulfillRandomWords",
      "outputs": [],
      "stateMutability": "nonpayable",
      "type": "function"
    },
    {
      "inputs": [],
      "name": "requestRandomWinner",
      "outputs": [],
      "stateMutability": "nonpayable",
      "type": "function"
    }
  ],
  "bytecode": "0x6101206040523480156200001257600080fd5b5060405162000e4b38038062000e4b833981810160405281019062000038919062000253565b848073ffffffffffffffffffffffffffffffffffffffff1660808173ffffffffffffffffffffffffffffffffffffffff168152505050836000819055508473ffffffffffffffffffffffffffffffffffffffff1660a08173ffffffffffffffffffffffffffffffffffffffff16815250508260c081815250508167ffffffffffffffff1660e08167ffffffffffffffff16815250508063ffffffff166101008163ffffffff16815250505050505050620002db565b600080fd5b600073ffffffffffffffffffffffffffffffffffffffff82169050919050565b60006200011f82620000f2565b9050919050565b620001318162000112565b81146200013d57600080fd5b50565b600081519050620001518162000126565b92915050565b6000819050919050565b6200016c8162000157565b81146200017857600080fd5b50565b6000815190506200018c8162000161565b92915050565b6000819050919050565b620001a78162000192565b8114620001b357600080fd5b50565b600081519050620001c7816200019c565b92915050565b600067ffffffffffffffff82169050919050565b620001ec81620001cd565b8114620001f857600080fd5b50565b6000815190506200020c81620001e1565b92915050565b600063ffffffff82169050919050565b6200022d8162000212565b81146200023957600080fd5b50565b6000815190506200024d8162000222565b92915050565b600080600080600060a08688031215620002725762000271620000ed565b5b6000620002828882890162000140565b955050602062000295888289016200017b565b9450506040620002a888828901620001b6565b9350506060620002bb88828901620001fb565b9250506080620002ce888289016200023c565b9150509295509295909350565b60805160a05160c05160e05161010051610b246200032760003960006103da015260006103b7015260006103960152600061035a01526000818161014201526101960152610b246000f3fe6080604052600436106100555760003560e01c806309bc33a71461005a5780631fe543e3146100855780632cfcc539146100ae578063460e2049146100b8578063473f1ddc146100f5578063522a1f0b14610120575b600080fd5b34801561006657600080fd5b5061006f610137565b60405161007c919061064a565b60405180910390f35b34801561009157600080fd5b506100ac60048036038101906100a791906107fe565b610140565b005b6100b6610200565b005b3480156100c457600080fd5b506100df60048036038101906100da919061085a565b6102e4565b6040516100ec91906108c8565b60405180910390f35b34801561010157600080fd5b5061010a61032c565b60405161011791906108c8565b60405180910390f35b34801561012c57600080fd5b50610135610356565b005b60008054905090565b7f000000000000000000000000000000000000000000000000000000000000000073ffffffffffffffffffffffffffffffffffffffff163373ffffffffffffffffffffffffffffffffffffffff16146101f257337f00000000000000000000000000000000000000000000000000000000000000006040517f1cf993f40000000000000000000000000000000000000000000000000000000081526004016101e99291906108e3565b60405180910390fd5b6101fc8282610490565b5050565b60005434101561023c576040517fbd4e069500000000000000000000000000000000000000000000000000000000815260040160405180910390fd5b6001339080600181540180825580915050600190039060005260206000200160009091909190916101000a81548173ffffffffffffffffffffffffffffffffffffffff021916908373ffffffffffffffffffffffffffffffffffffffff1602179055503373ffffffffffffffffffffffffffffffffffffffff167f0805e1d667bddb8a95f0f09880cf94f403fb596ce79928d9f29b74203ba284d460405160405180910390a2565b6000600182815481106102fa576102f961090c565b5b9060005260206000200160009054906101000a900473ffffffffffffffffffffffffffffffffffffffff169050919050565b6000600260009054906101000a900473ffffffffffffffffffffffffffffffffffffffff16905090565b60007f000000000000000000000000000000000000000000000000000000000000000073ffffffffffffffffffffffffffffffffffffffff16635d3b1d307f00000000000000000000000000000000000000000000000000000000000000007f000000000000000000000000000000000000000000000000000000000000000060067f000000000000000000000000000000000000000000000000000000000000000060016040518663ffffffff1660e01b815260040161041b9594939291906109b3565b6020604051808303816000875af115801561043a573d6000803e3d6000fd5b505050506040513d601f19601f8201168201806040525081019061045e9190610a1b565b9050807fcd6e45c8998311cab7e9d4385596cac867e20a0587194b954fa3a731c93ce78b60405160405180910390a250565b6000600180549050826000815181106104ac576104ab61090c565b5b60200260200101516104be9190610a77565b90506000600182815481106104d6576104d561090c565b5b9060005260206000200160009054906101000a900473ffffffffffffffffffffffffffffffffffffffff16905080600260006101000a81548173ffffffffffffffffffffffffffffffffffffffff021916908373ffffffffffffffffffffffffffffffffffffffff16021790555060008173ffffffffffffffffffffffffffffffffffffffff164760405161056a90610ad9565b60006040518083038185875af1925050503d80600081146105a7576040519150601f19603f3d011682016040523d82523d6000602084013e6105ac565b606091505b50509050806105e7576040517fba31c4f300000000000000000000000000000000000000000000000000000000815260040160405180910390fd5b8173ffffffffffffffffffffffffffffffffffffffff167f5b690ec4a06fe979403046eaeea5b3ce38524683c3001f662c8b5a829632f7df60405160405180910390a25050505050565b6000819050919050565b61064481610631565b82525050565b600060208201905061065f600083018461063b565b92915050565b6000604051905090565b600080fd5b600080fd5b61068281610631565b811461068d57600080fd5b50565b60008135905061069f81610679565b92915050565b600080fd5b6000601f19601f8301169050919050565b7f4e487b7100000000000000000000000000000000000000000000000000000000600052604160045260246000fd5b6106f3826106aa565b810181811067ffffffffffffffff82111715610712576107116106bb565b5b80604052505050565b6000610725610665565b905061073182826106ea565b919050565b600067ffffffffffffffff821115610751576107506106bb565b5b602082029050602081019050919050565b600080fd5b600061077a61077584610736565b61071b565b9050808382526020820190506020840283018581111561079d5761079c610762565b5b835b818110156107c657806107b28882610690565b84526020840193505060208101905061079f565b5050509392505050565b600082601f8301126107e5576107e46106a5565b5b81356107f5848260208601610767565b91505092915050565b600080604083850312156108155761081461066f565b5b600061082385828601610690565b925050602083013567ffffffffffffffff81111561084457610843610674565b5b610850858286016107d0565b9150509250929050565b6000602082840312156108705761086f61066f565b5b600061087e84828501610690565b91505092915050565b600073ffffffffffffffffffffffffffffffffffffffff82169050919050565b60006108b282610887565b9050919050565b6108c2816108a7565b82525050565b60006020820190506108dd60008301846108b9565b92915050565b60006040820190506108f860008301856108b9565b61090560208301846108b9565b9392505050565b7f4e487b7100000000000000000000000000000000000000000000000000000000600052603260045260246000fd5b6000819050919050565b61094e8161093b565b82525050565b600067ffffffffffffffff82169050919050565b61097181610954565b82525050565b600061ffff82169050919050565b61098e81610977565b82525050565b600063ffffffff82169050919050565b6109ad81610994565b82525050565b600060a0820190506109c86000830188610945565b6109d56020830187610968565b6109e26040830186610985565b6109ef60608301856109a4565b6109fc60808301846109a4565b9695505050505050565b600081519050610a1581610679565b92915050565b600060208284031215610a3157610a3061066f565b5b6000610a3f84828501610a06565b91505092915050565b7f4e487b7100000000000000000000000000000000000000000000000000000000600052601260045260246000fd5b6000610a8282610631565b9150610a8d83610631565b925082610a9d57610a9c610a48565b5b828206905092915050565b600081905092915050565b50565b6000610ac3600083610aa8565b9150610ace82610ab3565b600082019050919050565b6000610ae482610ab6565b915081905091905056fea2646970667358221220be3016a30478e1beeb683faebb0a127f8737057a02917ccdb0e7fca6fc52d57664736f6c63430008110033",
  "linkReferences": {},
  "deployedLinkReferences": {}
}